:1012BE0075E10475E21475E3C4E4F5A475A50FF5A4
:0712CE00A6F5A775B5CB22C0
:1011F60075B167E4FFFE0FBF00010EE4B507F7EE19
:10120600B401F3E5B130E7FB75B288E5B130E7FB31
:0312160075B208A6
:0112190022B2
:1012D50075FFDE75FFAD1211F67596101212BE126E
:0512E500128402131544
:10128400C2AF758CFD758A1F758901E4F58ED28C09
:10129400D2A9C28D758DE8D28EC2ABC28FD2AF22D5
:03000000020100FA
:03010000020C628C
:0C0C6200787FE4F6D8FD758120020CA913
:100772004249454E56454E49444F5300414C205341
:10078200495354454D4100414C41524D4120434F44
:100792004E4543544144410046313A204143544975
:1007A2005641520046323A2050726F6772616D6153
:1007B20063696F6E00414C41524D4120414354499F
:1007C200564144410046333A20444553414354493B
:1007D20056415200494E475245534520434C4156DB
:1007E200450045535441444F2050524F4752414DCA
:1007F20041430046333A2045535441444F204F462B
:10080200460041435449564152205A4F4E415300EB
:1008120043414D4249415220434C415645004553C4
:100822005441444F204F46460043414D42494F20D8
:10083200444520434C41564500434F525245435490
:100842004F00494E434F52524543544F00494E4781
:100852005245534F20444520434C41564500455391
:0E0862005441444F20414C41524D414441000D
:10112D004100420042004407D042003502584200BF
:03113D0037064032
:10065B001212D5E490004AF0A312055C00000000D2
:10066B0090003912055C000004D2E4900049F09030
:10067B000043F090003DF090004FF0900046F0A347
:10068B00F0A3F0121261120F731212A47BFF7A0700
:10069B007972C204E4900054F07D0B120EC37BFF01
:1006AB007A07797ED204E4900054F07D0A120EC3CF
:1006BB007D047C00E4FF1211CA7BFF7A0779897DE8
:1006CB0010120FC87F007E007D007C00120BD5122C
:1006DB000A14900046E064017028F0120F737BFF40
:1006EB007A07799AC204E4900054F07D0B120EC382
:1006FB007BFF7A0779A6D204E4900054F07D1012A8
:10070B000EC3900047E064017028F0120F737BFF5B
:10071B007A0779B7C204E4900054F07D0F120EC330
:10072B007BFF7A0779C7D204E4900054F07D0E1258
:10073B000EC3900048E0B40117E4F0120F737BFF77
:10074B007A0779D6C204E4900054F07D0D120EC3E3
:10075B0012130390004AEFF0120103120DFA12115B
:07076B0069120E6A0206DAB2
:10010300900042E0B4090040030204A7900116F8EE
:100113002828730201310203B30204A702019102EA
:10012300041D02028A02032202021702020D90003A
:100133004AE0B40C1E5385DF9000427405F0120FA1
:10014300737BFF7A0779D6C204E4900054F07D0DE7
:10015300120EC390004AE0640D60030204A75385A6
:10016300DF9000427403F0120F737BFF7A0779E488
:10017300C204E4900054F07D10120EC37BFF7A0793
:1001830079F5D204E4900054F07D0E0202879000CA
:100193004AE0B40C1E120F737BFF7A087904C20481
:1001A300E4900054F07D0D120EC35385DF9000429E
:1001B3007408F090004AE0B40D1E120F737BFF7AAF
:1001C300087912C204E4900054F07D0D120EC3535B
:1001D30085DF9000427407F090004AE0640E6003EC
:1001E3000204A7120F737BFF7A087920C204E490FC
:1001F3000054F07D0A120EC37D047C00E4FF12114B
:10020300CA5385DFE4900042F022438540900042C8
:100213007403F02212095490004FEFF06401702E22
:10022300F09000427403F0120F737BFF7A08792B6E
:10023300C204E4900054F07D0F120EC37BFF7A08D2
:10024300793BD204E4900054F07D08120EC3900071
:100253004FE0640260030204A7F09000427403F0CD
:10026300120F737BFF7A08792BC204E4900054F0D9
:100273007D0F120EC37BFF7A087944D204E4900009
:1002830054F07D0A020EC3120870900043EFF0642D
:10029300017046F090003DF05385DF5396FE539670
:1002A300FD5396FB90004204F0120F737BFF7A0814
:1002B300794FC204E4900054F07D10120EC37BFF0B
:1002C3007A08793BD204E4900054F07D08120EC3FF
:1002D3007D047C007F011211CA900043E064026038
:1002E300030204A7F090003DF05385DF5396FE53BD
:1002F30096FD5396FB900042F0120F737BFF7A0832
:10030300794FC204E4900054F07D10120EC37BFFBA
:100313007A087944D204E4900054F07D0A804512AF
:100323000870900043EFF064017045F090003DF0D9
:100333005385DF5396FE5396FD5396FB900042F090
:10034300120F737BFF7A08794FC204E4900054F0D4
:100353007D10120EC37BFF7A08793BD204E4900030
:1003630054F07D08120EC37D047C00E4FF0204A454
:10037300900043E0640260030204A7F090003DF0A4
:10038300120F737BFF7A08794FC204E4900054F094
:100393007D10120EC37BFF7A087944D204E49000E7
:1003A30054F07D0A120EC37D047C007F020204A474
:1003B30090004AE0B40E1E5385DF9000427406F0AD
:1003C300120F737BFF7A0779D6C204E4900054F0CE
:1003D3007D0D120EC390003DE0640160030204A78B
:1003E3004396109000427404F0120F737BFF7A0857
:1003F3007960C204E4900054F07D0F120EC37BFFBA
:100403007A0779D6D204E4900054F07D0D120EC31E
:1004130043960143960243960422120870900043C8
:10042300EFF064017045F090003DF05385DF539683
:10043300FE5396FD5396FB900042F0120F737BFF21
:100443007A08794FC204E4900054F07D10120EC371
:100453007BFF7A08793BD204E4900054F07D0812C4
:100463000EC37D047C00E4FF1211CA900043E064D4
:10047300027031F0120F737BFF7A08794FC204E4E4
:10048300900054F07D10120EC37BFF7A087944D29A
:1004930004E4900054F07D0A120EC37D047C007FB7
:0504A300021211CA2243
:10087000900049E0C39404400302094DA3E0FFF453
:1008800060047E0180027E00EFC3940A50047F0161
:1008900080027F00EF5E700302094D90004BE0FC88
:1008A000A3E0FDA3E0FEA3E0FFE47B0AFAF9F8125F
:1008B00004EB90004B12055090004BE0F8A3E0F9D8
:1008C000A3E0FAA3E0FB90004AE0FFE4FCFDFEEBAE
:1008D0002FFFEE3AFEED39FDEC38FCA312055090E7
:1008E0000049E004F090004BE0FCA3E0FDA3E0FE33
:1008F000A3E0FF120BD5900049E06404704F900014
:1009000039E0FCA3E0FDA3E0FEA3E0FF90004BE094
:10091000F8A3E0F9A3E0FAA3E0FBC312053A7016CE
:1009200090004B12055C00000000E4900049F0903C
:10093000005004F0FF22E4900049F090004B1205B3
:100940005C000000009000507402F0FF22E4900070
:0309500050F0FF65
:010953002281
:100DFA00900042E06401706720A60620A10330A09B
:100E0A000D90003D7401F0438520D2008005538582
:100E1A00DFC20020A70330A20D90003D7401F04309
:100E2A008510D20180055385EFC20130A30D9000D1
:100E3A003D7401F0438540D20280055385BFC2024A
:100E4A0030A50D90003D7401F0438580D2038005E2
:100E5A0053857FC20330A404439610225396EF228F
:10095400900049E0C394044003020A0DA3E0FFF4AD
:1009640060047E0180027E00EFC3940A50047F017C
:1009740080027F00EF5E7003020A0D90003EE0FCEF
:10098400A3E0FDA3E0FEA3E0FFE47B0AFAF9F8127A
:1009940004EB90003E12055090003EE0F8A3E0F90D
:1009A400A3E0FAA3E0FB90004AE0FFE4FCFDFEEBC9
:1009B4002FFFEE3AFEED39FDEC38FC90003E1205B7
:1009C40050900049E004F090003EE0FCA3E0FDA359
:1009D400E0FEA3E0FF120BD5900049E0B4042A9096
:1009E400003EE0FCA3E0FDA3E0FEA3E0FF9000399D
:1009F40012055090003E12055C00000000E49000D7
:0F0A040049F090005004F0FF22E4900050F0FF02
:010A130022C0
:10116900900044E0FEA3E0FFC3900074E09F90006C
:1011790073E09E500543960180035396FEC3900089
:1011890076E09F900075E09E5004439602225396A4
:02119900FD2235
:100E6A00900037E0FEA3E0FF900077E0FCA3E0FDEE
:100E7A00D39FEC9E40054396048012EF246AFFEE4E
:100E8A0034FFFEC3ED9FEC9E50035396FB90003552
:100E9A00E0FEA3E0FF900077E0FCA3E0FDC39FEC37
:100EAA009E500443960822EF2496FFE43EFED3EDBB
:090EBA009FEC9E40035396F722C1
:04114000410085FFE6
:1010EF00EFB4FF059000858018900086E0FE700A2F
:1010FF00900085EFF0A37401F022900085E06F60FF
:10110F000774FFF0E4A3F022EEB4C80B900087EF52
:0D111F00F0E4900086F022900086E004F0DD
:01112C0022A0
:06130C00120D770210EF44
:100D7700C290D291D292D2932094037F09222095D8
:100D8700037F0B222096037F03222097037F0622EF
:100D9700D290C291D292D2932094037F0E222095B3
:100DA700037F0F222096037F0C222097037F0D22BB
:100DB700D290D291C292D2932094037F072220959A
:100DC700037F0A222096037F01222097037F0422B4
:100DD700D290D291D292C2932094037F0822209579
:100DE700037F00222096037F02222097037F05229C
:030DF7007FFF2259
:08130300900087E0FF74FFF089
:01130B0022BF
:0A12F9003F065B4F666D7D077F6FB7
:060BD500900051120550D2
:100BDB009000557405F0E47B0AFAF9F8900051E0A7
:100BEB00FCA3E0FDA3E0FEA3E0FF1210AB74F92B16
:100BFB00F58274123AF583E493FF900055E0247A62
:100C0B00F582E43400F583EFF0900051E0FCA3E0B3
:100C1B00FDA3E0FEA3E0FFE47B0AFAF9F81210ABA8
:100C2B00900051120550900055E014F0E070A7E4CD
:100C3B007B0AFAF9F8900051E0FCA3E0FDA3E0FE7B
:100C4B00A3E0FF1210AB74F92BF58274123AF58303
:060C5B00E49390007AF022
:010C61002270
:0411440041008800DE
:100B42005384C0900088E0FF247AF582E43400F5F3
:100B520083E0FE1392B7EEC3131392B6EE1313544F
:100B62003F1392B5EE131313541F1392B4EEC454F1
:100B72000F1392B3EEC41354071392B2EEC41313BD
:100B820054031392B1EEC413131354011392B0EF32
:100B920014601514601714601914601B14601D246E
:100BA20005701E438401801C438402801743840421
:100BB2008012438408800D4384108008438420807F
:100BC200035384C0900088E004F0E075F00684E5E9
:020BD200F0F041
:010BD40022FE
:0E0EC300900050EBF0A3EAF0A3E9F0A3EDF0ED
:100ED100200408D205A3E024808008D205900054A4
:100EE100E024C0121242E4900055F0900053E0FF5C
:100EF100900055E0FEC39F5020C205900050E0FBDA
:100F0100A3E0FAA3E0F98E827583001204A81212FD
:090F110042900055E004F080D28A
:010F1A0022B4
:100F7300E4900050F05384BF75863C12119B538458
:100F83007F4384407F03DFFE5384BF900050E0041F
:100F9300F0E0C3940340DED205743F1212421212F2
:100FA3003ED2059000567408F012124612123ED239
:100FB30005900056740CF0121246D2059000567438
:050FC30006F0021246D9
:10119B00E4900051F0A3F0900051E0FEA3E0FFE4D7
:1011AB00FCFD7BB87A88F9F8D312053A4010900011
:0E11BB0052E004F070E1900051E004F080D9A1
:0111C9002203
:0E12EA00E4FFFE0FBF00010EBE13F8BF88F533
:0112F80022D3
:08123E00D2057401900056F086
:1012460030050553847F80034384804384409000A7
:0B12560056E0F5861212EA5384BF2216
:0811480041000100410002001A
:10126100538833E589540F4420F589E58E54F044C1
:1012710010F58E758DF4D28E759850758780D29940
:03128100D2AC22CA
:03002300020F1BAE
:0D0F1B00C0E0C083C082C0D075D000C00708
:100F2800E59830E00B5398FE900057E599F0803033
:100F3800E59830E12B5398FD900001E0FF60219087
:100F48000000E02403F582E43400F583E0F599908D
:100F58000000E004F0E0B50707A3E4F0900000F01B
:0B0F6800D007D0D0D082D083D0E03280
:0B0FC80090005FEBF0A3EAF0A3E9F05B
:100FD300900001E0703DFFEFC39D502390005FE060
:100FE300FBA3E0FAA3E0F98F827583001204A8FE45
:100FF30074032FF582E43400F583EEF00F80D8906C
:101003000001EDF05398FD900003E0F59990000086
:031013007401F075
:0110160022B7
:10106600E4FFFE900058743CF0A37431F0A201E452
:1010760033A3F0A202E433A3F0A203E433A3F0A364
:10108600743EF074582FF582E43400F583E02EFEAA
:101096000FEFB406EE90005EEEF07B017A00795811
:0510A6007D07020FC8E8
:03131200000405CF
:0411500041007900E1
:1012A40075D10343E702E4F5BA900079E090131294
:0A12B40093F5BB75BC3875E8D02235
:03007B00020AADC9
:100AAD00C0E0C0F0C083C082C0D075D000C000C00F
:100ABD0005C00775E800AFBF900079E0FD25E02483
:100ACD0073F582E43400F583E4F0A3EFF0ED25E057
:100ADD002473F582E43400F583C083C082A3E0D093
:100AED0082D083F0A3E4F0AFBEED25E02473F58250
:100AFD00E43400F583E48FF01204D575BA0090004C
:100B0D0079E004F0E0FFB4020575BC3A800375BCD2
:100B1D0038EFB40305900079E4F0900079E090137C
:100B2D001293F5BBD007D005D000D0D0D082D083A2
:050B3D00D0F0D0E03211
:10115400410083284100840A4100803C4100813CD5
:0411640041008200C4
:03000B00020CEEF6
:100CEE00C0E0C0F0C083C082C0D075D000C000C0CC
:100CFE0001C002C003C004C005C006C007C28C7587
:100D0E008CFDE58A241FF58AD28C120B4212130C2D
:100D1E00900083E014F0E070357428F0A3E014F036
:100D2E00E0702B740AF0E4FF1210177F01121017F7
:100D3E007F02121017121066900080E014F0E0701F
:100D4E000D743CF0A3E014F0E07003743CF0D00797
:100D5E00D006D005D004D003D002D001D000D0D020
:090D6E00D082D083D0F0D0E03235
:1011CA00C2A9EF25E02463F582E43400F583ECF04C
:1011DA00A3EDF0900062E0FE7401A807088002C344
:0C11EA0033D8FCF45E900062F0D2A92221
:10121A00C2A97F08EF25E02463F582E43400F58350
:10122A00E4F0A3F0DFEEE4900063F0A3F090006234
:03123A00F0D2A946
:01123D00228E
:100A14009000507401F0900050E0FF7003020AACA3
:100A2400900062E0FE5F24FE602B24FE603624FC0E
:100A3400604124F8604624F0604B24E0605024C0F8
:100A44006055247F70589000467401F0EE54FE9077
:100A54000062F080499000477401F0900062E05415
:100A6400FDF0803A9000487401F0900062E054FB7D
:100A7400F0802B900062E054F7F08022900062E056
:100A840054EFF08019900062E054DFF08010900081
:100A940062E054BFF08007900062E0547FF0900061
:080AA40050E025E0F0020A1AFF
:010AAC002227
:10101700EF25E02463F582E43400F583E0FCA3E0E8
:101027004C603BEF25E02463F582E43400F58374DC
:10103700FFF5F01204D5EF25E02463F582E43400D0
:10104700F583E0FCA3E04C7015900062E0FE7401AC
:0F105700A807088002C333D8FC4E900062F02235
:0313150002121AA7
:100C6E0002065BE493A3F8E493A34003F68001F23B
:100C7E0008DFF48029E493A3F85407240CC8C33387
:100C8E00C4540F4420C8834004F456800146F6DF56
:100C9E00E4800B010204081020408090112DE47EA8
:100CAE00019360BCA3FF543F30E509541FFEE4934B
:100CBE00A360010ECF54C025E060A840B8E493A312
:100CCE00FAE493A3F8E493A3C8C582C8CAC583CA3D
:100CDE00F0A3C8C582C8CAC583CADFE9DEE780BEF5
:011168000086
:1004A800BB010CE58229F582E5833AF583E0225009
:1004B80006E92582F8E622BBFE06E92582F8E22253
:0D04C800E58229F582E5833AF583E493226D
:1004D500C5F0F8A3E028F0C5F0F8E58215827002B2
:0604E5001583E038F0224F
:1004EB00E88FF0A4CC8BF0A42CFCE98EF0A42CFCB0
:1004FB008AF0EDA42CFCEA8EF0A4CDA8F08BF0A42E
:10050B002DCC3825F0FDE98FF0A42CCD35F0FCEB8C
:10051B008EF0A4FEA9F0EB8FF0A4CFC5F02ECD3951
:0F052B00FEE43CFCEAA42DCE35F0FDE43CFC22BE
:1010AB00C2D5E830E70FB2D5E4C39BFBE49AFAE470
:1010BB0099F9E498F8EC30E717B2D51210E1120564
:1010CB00C9E4C39BFBE49AFAE499F9E498F880032A
:1010DB001205C930D50DE4C39FFFE49EFEE49DFDD0
:0410EB00E49CFC2263
:10053A00EB9FF5F0EA9E42F0E99D42F0EC6480C838
:06054A0064809845F022D8
:0C055000ECF0A3EDF0A3EEF0A3EFF0221E
:10055C00A8828583F0D083D08212057312057312A2
:10056C000573120573E473E493A3C583C5F0C583C7
:10057C00C8C582C8F0A3C583C5F0C583C8C582C8E9
:01058C00224C
:10058D0075F008758200EF2FFFEE33FECD33CDCC25
:10059D0033CCC58233C5829BED9AEC99E5829840A8
:1005AD000CF582EE9BFEED9AFDEC99FC0FD5F0D685
:1005BD00E4CEFBE4CDFAE4CCF9A88222B800C1B9AF
:1005CD000059BA002DEC8BF084CFCECDFCE5F0CBED
:1005DD00F97818EF2FFFEE33FEED33FDEC33FCEB26
:1005ED0033FB10D703994004EB99FB0FD8E5E4F9E1
:1005FD00FA227818EF2FFFEE33FEED33FDEC33FCCE
:10060D00C933C910D7059BE99A4007EC9BFCE99AC1
:10061D00F90FD8E0E4C9FAE4CCFB2275F010EF2F06
:10062D00FFEE33FEED33FDCC33CCC833C810D70706
:10063D009BEC9AE899400AED9BFDEC9AFCE899F841
:0E064D000FD5F0DAE4CDFBE4CCFAE4C8F922D4
:00000001FF
